:020000040800F2
:1000000018070020390A0008650500086705000880
:100010006B0500086F05000873050008000000006C
:10002000000000000000000000000000770500084C
:1000300079050008000000007B0500087D05000828
:10004000530A0008530A0008530A0008530A00081C
:10005000530A0008530A0008530A0008530A00080C
:10006000530A0008530A0008530A0008530A0008FC
:10007000530A0008530A0008530A0008530A0008EC
:10008000530A0008530A0008530A0008530A0008DC
:10009000530A0008530A0008530A0008530A0008CC
:1000A000530A0008530A0008530A0008530A0008BC
:1000B000530A0008530A0008530A0008530A0008AC
:1000C000530A0008530A0008530A0008530A00089C
:1000D000530A00082F0A0008530A0008530A0008B0
:1000E000530A0008530A0008530A0008530A00087C
:1000F000530A0008530A0008530A0008530A00086C
:10010000530A0008530A0008530A0008530A00085B
:10011000530A0008530A0008530A0008530A00084B
:10012000530A0008530A0008530A0008530A00083B
:1001300000F002F800F04DF80AA090E8000C8244AC
:100140008344AAF10107DA4501D100F042F8AFF289
:10015000090EBAE80F0013F0010F18BFFB1A43F0A5
:1001600001031847782F0000982F0000103A24BF91
:1001700078C878C1FAD8520724BF30C830C144BF0C
:1001800004680C607047000000230024002500264E
:10019000103A28BF78C1FBD8520728BF30C148BFEA
:1001A0000B607047662902F04C87642901F0E485F2
:1001B000732902F04781002070471FB502F058F9FB
:1001C00004000020002102F0AFFEE0601FBD10B56A
:1001D00010BD02F065FA1146FFF7EFFF00F028F8B6
:1001E00002F083FA03B4FFF7F2FF03BC00F0C4FB94
:1001F00010B502460B461088012106E032F8114086
:10020000844201DA32F81100491C9942F6D310BD3C
:1002100010B502460B461088012106E032F8114065
:10022000844201DD32F81100491C9942F6D310BD19
:1002300000F09AFA00F036FB4FF4E13000F0ABFB2F
:1002400000F0ACFAC8E0AC480088AC490880AC4883
:10025000008840F6FF71081AA74908800846008800
:10026000A6490988401AA749098888420ADAA2489B
:100270000188A54802880088401CA34B1880A34829
:1002800020F81210A0480088322824DB00209E4964
:10029000088032219D48FFF7BBFF9D49088032212D
:1002A0009A48FFF7A5FF9B49088099490988994A10
:1002B0001288881800EBD071C1F34F01964A118063
:1002C00093490988934A1288881A00EBD071C1F3C8
:1002D0004F018C4A118091480078914908708648F6
:1002E00000888D490988884201DD012000E0002056
:1002F0008A4908708A48007800284FD1084600785B
:1003000001284BD187480088401C8649088008880E
:1003100000EBD0714910A0EB4101824A11801046D8
:100320000088012803D180480088804908807D48E2
:10033000008870BB7C4800887D49088000207A498D
:1003400008807B48008879490988884221DD7848FF
:10035000008876490988401A00EB80004FF6FF714B
:1003600001EA800073490880084600884EF6602143
:1003700091FBF0F07049088008460088C82801DD2C
:10038000C82008806C4800881E2802DA1E206A49AE
:1003900008806948018869A001F0B8FC56480088C7
:1003A000684908800846018867A001F0AFFC5E48F4
:1003B0000088401C5C490880142000F0B0FA2046F8
:1003C000641C322808DB6248006808B9012000E09C
:1003D00000205F490860002435E7F8B505460C4663
:1003E000284602F0BDFD064632460B4659A0009451
:1003F00001F08CFCF8BD70B586B0142101A801F0A5
:100400007EFD00240DE03E48008840F6FF71081A8A
:1004100001A921F814004FF4967000F05CFA601CFA
:10042000C4B20A2CEFDB00241EE0002516E001A870
:1004300030F8151001AA681C32F8100081420BDD5B
:1004400001A830F8156001A9681C31F8100021F8E6
:100450001500681C21F81060681CC5B2C4F10900C1
:10046000A842E4DC601CC4B2092CDEDB00260124B7
:1004700006E001A830F81400304486B2601CC4B213
:10048000092CF6DB3146F01706EB5070C01006B0B1
:1004900070BD73B582B00646002403E000200DF85D
:1004A0000400641C072CF9DD03AD88208DF80000E2
:1004B000F0B28DF8010004208DF80200E8788DF884
:1004C0000300A8788DF8040068788DF80500287876
:1004D0008DF80600002408E09DF807001DF80410C0
:1004E0000844C0B28DF80700641C062CF4DD694690
:1004F0001BA001F00BFC7FBD0000002002000020CB
:1005000034000020120000201000002054000020C1
:1005100016000020180000201A0000201C000020F7
:100520001D00002014000020040000200600002010
:10053000080000200A0000200C0000204225640D65
:100540000A0000000E0000205325640D0A00000080
:100550008C0121422A252E316640256423000000AB
:1005600025730000704700BFFEE700BFFEE700BF35
:10057000FEE700BFFEE77047704770477047000016
:100580000CB50020019000906C48006840F4803069
:100590006A49086000BF6948006800F400300090B4
:1005A0000198401C0190009818B90198B0F5A06F0F
:1005B000F1D16248006800F4003010B101200090D1
:1005C00001E0002000900098012843D15C480068B9
:1005D00040F010005A4908600846006820F0030007
:1005E00008600846006840F0020008605348406810
:1005F000524948600846406848600846406840F4F0
:10060000806048600846406820F47C1048600846D6
:10061000406840F4881048600846006840F08070E8
:10062000086000BF4548006800F000700028F9D05D
:100630004248406820F0030040494860084640684E
:1006400040F00200486000BF3C48406800F00C00E9
:100650000828F9D10CBD10B5FFF792FF10BD10B5F9
:100660003648006840F00100344908600846406898
:10067000344908403149486008460068324908401A
:100680002E4908600846006820F48020086008466B
:10069000406820F4FE0048604FF41F008860FFF7B8
:1006A000DAFF4FF000602949086010BD10B5002145
:1006B00000200022214B5B6803F00C0121B10429CA
:1006C00006D0082928D107E0214B224C236027E0DF
:1006D000214B204C236023E0184B5B6803F470101F
:1006E000164B5B6803F48032022303EB904022B97F
:1006F0001A4B4343174C23600DE0104B5B6803F427
:10070000003323B1164B4343124C236003E0124BDA
:100710004343104C236003E00D4B0E4C236000BF9D
:1007200000BF064B5B68C3F303130E4CE15C094B3F
:100730001B68CB40074C236010BD00000010024036
:10074000002002400000FFF8FFFFF6FE08ED00E089
:1007500000127A0020000020001BB70000093D00B5
:10076000808D5B002400002008B50121042000F0EA
:100770009FFC0820ADF8000010208DF80300032036
:100780008DF802006946044800F0D6F94FF48071F4
:10079000014800F07EFA08BD0008014000B591B0A4
:1007A0004FF4404000F0E8FB0121084600F073FCE4
:1007B00001214FF4047000F07BFC0820ADF800002C
:1007C00000208DF803006946324800F0B5F9324840
:1007D00001F070F9314806903148079000200890E8
:1007E0000120099000200A900B904FF480700C902B
:1007F00080000D9020200E9000020F90002010909D
:1008000006A9254801F0F8F90121234801F01FFA53
:10081000002001908DF8080001208DF809004FF4A8
:10082000602003900020049001208DF8140001A99D
:100830001A484C3800F03DFF052301220D211748CE
:100840004C3800F0CEFF012114484C3800F068FF0E
:10085000012112484C3800F058FF10484C3800F085
:1008600076FF00BF0D484C3800F076FF0028F9D124
:100870000A484C3800F07AFF00BF08484C3800F0B6
:100880007AFF0028F9D1012104484C3800F07DFF9F
:1008900011B000BD00100140080002404C2401408E
:1008A0003400002010B56FF0040000F0BCFE2E48AC
:1008B00000682E49B0FBF1F02D4908700846007819
:1008C00000EB4001C1EBC0104FF6FF7101EAC00020
:1008D0002849088010BD0146254A12784A434FF046
:1008E000E0235A6100229A611A46126942F001021D
:1008F0001A6100BF4FF0E022106900F001021AB146
:1009000000F48032002AF5D04FF0E022126922F084
:1009100001024FF0E0231A6100229A6170470146FC
:10092000144A12884A434FF0E0235A6100229A6128
:100930001A46126942F001021A6100BF4FF0E0222C
:10094000106900F001021AB100F48032002AF5D0DB
:100950004FF0E022126922F001024FF0E0231A6109
:1009600000229A61704700002000002000127A00E7
:100970003600002038000020014600BF704700BF4D
:100980002B4A128802F04002002AF9D0C2B2284B4A
:100990001B1D1A80704710B586B00446012144F231
:1009A000040000F085FB4FF40070ADF81400032044
:1009B0008DF8160018208DF8170005A91D4800F0C5
:1009C000BBF84FF48060ADF8140004208DF81700D8
:1009D00005A9184800F0B0F825208DF80000032084
:1009E0008DF801008DF8020001208DF803006846A3
:1009F00000F0CFFD01940020ADF80800ADF80A002A
:100A0000ADF80C00ADF810000C20ADF80E0001A9F7
:100A1000074800F0F8FB012240F22551044800F09D
:100A20008AFC0121024800F07AFC06B010BD704734
:100A30000038014000080140094880470948004744
:100A4000FEE7FEE7FEE7FEE7FEE7FEE7FEE7FEE77E
:100A5000FEE7FEE704480549054A064B70470000DB
:100A60005F06000831010008180100201807002067
:100A7000180300201803002010B50446CC48844217
:100A800008D10121042000F02DFB0021042000F0FA
:100A900029FB46E0C748844208D10121082000F024
:100AA00021FB0021082000F01DFB3AE0C2488442EF
:100AB00008D10121102000F015FB0021102000F0CA
:100AC00011FB2EE0BD48844208D10121202000F016
:100AD00009FB0021202000F005FB22E0B8488442F9
:100AE00008D10121402000F0FDFA0021402000F053
:100AF000F9FA16E0B348844208D10121802000F0C1
:100B0000F1FA0021802000F0EDFA0AE0AE488442BC
:100B100007D10121801500F0E5FA0021A01500F0B1
:100B2000E1FA10BD10B50121084600F0DBFA002102
:100B3000012000F0D7FA10BD2DE9F0410246002552
:100B40000026002000230024002791F803C00CF0A9
:100B50000F0591F803C00CF0100CBCF1000F03D08E
:100B600091F802C04CEA050591F800C0BCF1000FF5
:100B700031D0146800202BE04FF0010C0CFA00F388
:100B8000B1F800C00CEA03069E4220D183004FF06A
:100B90000F0C0CFA03F7BC4305FA03FC4CEA0404FF
:100BA00091F803C0BCF1280F06D14FF0010C0CFAEC
:100BB00000FCC2F814C00AE091F803C0BCF1480F71
:100BC00005D14FF0010C0CFA00FCC2F810C0401C1B
:100BD0000828D1D31460B1F800C0BCF1FF0F34DD98
:100BE000546800202EE000F1080C4FF0010808FACC
:100BF0000CF3B1F800C00CEA03069E4221D1830039
:100C00004FF00F0C0CFA03F7BC4305FA03FC4CEA57
:100C1000040491F803C0BCF1280F05D100F1080CC1
:100C200008FA0CF8C2F8148091F803C0BCF1480F20
:100C300007D100F1080C4FF0010808FA0CF8C2F8CF
:100C40001080401C0828CED35460BDE8F0814FF6D8
:100C5000FF710180022181700421C170704702463A
:100C6000002093680B400BB1012000E0002070478A
:100C70000146886880B2704702460020D3680B4066
:100C80000BB1012000E0002070470146C86880B227
:100C9000704701617047416170470AB1016100E02E
:100CA00041617047C16070474FF480320A438261EE
:100CB0008161826182698269704702460020434BEC
:100CC00018684FF68073184040EA021008433F4B03
:100CD000186070473E49C8617047F0B50A46002366
:100CE00000240021002500F00046B6F1004F02D19B
:100CF000364EF16901E0354E7168C0F3034583B2A9
:100D000000F44016B6F5401F08D121F070612F4E57
:100D1000766826F070662D4F7E6012E000F4801633
:100D2000B6F5801F06D1032606FA05F4A14341F06B
:100D3000706106E0460D360103FA06F6B14341F054
:100D4000706122B1460D360103FA06F6314300F018
:100D50000046B6F1004F02D11C4EF16101E01B4E7E
:100D60007160F0BD30B500228B071C0F0F2303FA12
:100D700004F2164B08338C1053F824309343134C71
:100D800008348D1044F8253023468C1053F8243055
:100D90008C07240F00FA04F423430C4C08348D1004
:100DA00044F8253030BD0A49DC3108607047000046
:100DB00000080140000C01400010014000140140F7
:100DC00000180140001C01400020014000000140CB
:100DD00000002042DF48006840F00100DD49086063
:100DE00008464068DC490840DA494860084600681F
:100DF000DA490840D74908600846006820F4802096
:100E000008600846406820F4FE0048604FF41F0068
:100E100088607047CF49096821F48031CD4A11605C
:100E20001146096821F480211160B0F5803F03D09C
:100E3000B0F5802F0ED106E0C649096841F4803133
:100E4000C44A116007E0C349096841F4A021C14ABE
:100E5000116000E000BF00BF704710B501460022DE
:100E6000002300204A11012A02D1BA4C236806E06F
:100E7000022A02D1B74C236A01E0B64C636A01F042
:100E80001F02012494401C400CB1012000E000200E
:100E900010BD38B5002000900024002500BF31208F
:100EA000FFF7DBFF05460098401C00900098B0F566
:100EB000A06F01D0002DF2D03120FFF7CEFF08B196
:100EC000012400E00024204638BD01460020A14A4C
:100ED000106820F0F80040EAC10010607047A04997
:100EE00008607047024600209A4B586820F47C1036
:100EF00042EA01031843974B5860704798490866C7
:100F0000704701460020934A506820F003000843D0
:100F1000506070478F48406800F00C0070470146F1
:100F200000208C4A506820F0F00008435060704761
:100F300001460020874A506820F4E0600843506072
:100F4000704701460020834A506820F4605040EA10
:100F5000C1005060704729B17E4A527A02437D4BEE
:100F60005A7204E07B4A527A82437A4B5A72704733
:100F70007B49D8310860704701460020754A5068A7
:100F800020F440400843506070470021714A2032ED
:100F90001170704A82F82010012802D004280AD16A
:100FA00004E001216B4A2032117005E00521694AF5
:100FB0002032117000E000BF00BF7047694908602F
:100FC00070476449096A0143624A11627047654982
:100FD00044390860704730B5002100220024002306
:100FE0005C4D6D6805F00C0121B1042905D008297C
:100FF00023D105E05C4D056022E05C4D05601FE0FB
:10100000544D6D6805F47012524D6D6805F48034CE
:10101000022505EB92421CB9554D554305600BE086
:101020004C4D6D6805F400351DB1524D55430560BA
:1010300002E04E4D5543056002E04B4D056000BF98
:1010400000BF444D6D6805F0F00109094A4D6B5C25
:101050000568DD4045603F4D6D6805F4E061090AB3
:10106000454D6B5C4568DD4085603A4D6D6805F423
:101070006051C90A404D6B5C4568DD40C560354D27
:101080006D6805F44041890B3C4D6B5CC568B5FB50
:10109000F3F5056130BD29B12E4A526902432D4B4B
:1010A0005A6104E02B4A526982432A4B5A617047C5
:1010B00029B1284A92690243264B9A6104E0254AE5
:1010C00092698243234B9A61704729B1214AD269C0
:1010D0000243204BDA6104E01E4AD26982431D4B71
:1010E000DA61704729B11B4AD2680243194BDA60B2
:1010F00004E0184AD2688243164BDA60704729B17F
:10110000144A12690243134B1A6104E0114A12692E
:101110008243104B1A61704712494039086070478A
:101120000F49C86470470B49C87170470948406A45
:1011300040F0807007494862704701460020054A28
:1011400092680A400AB1012000E00020704701497E
:1011500088727047001002400000FFF8FFFFF6FEA3
:10116000000042428004424200127A00001BB70095
:1011700000093D00808D5B004000002050000020F1
:1011800010B50446FB48844209D101218803FFF7CA
:10119000A9FF00214FF48040FFF7A4FF32E0F6489A
:1011A000844209D101214804FFF7A9FF00214FF42F
:1011B0000030FFF7A4FF25E0F048844209D1012167
:1011C0008804FFF79CFF00214FF48020FFF797FF72
:1011D00018E0EB48844209D10121C804FFF78FFFD2
:1011E00000214FF40020FFF78AFF0BE0E54884421E
:1011F00008D101210805FFF782FF00214FF480107C
:10120000FFF77DFF10BD2DE9F04786B005460E467D
:101210000024A24600BFA1460027B08900B100BF4C
:101220002F462C8A4CF6FF700440F08804432C8231
:10123000AC894EF6F3100440B088318908437189B7
:1012400008430443AC81AC8A4FF6FF400440B089A8
:101250000443AC8201A8FFF7BEFEC648874202D114
:10126000DDF810A001E0DDF80CA0A88900F4004032
:1012700040B10AEBCA0000EB0A1031684900B0FB2C
:10128000F1F807E00AEBCA0000EB0A1031688900A8
:10129000B0FBF1F86420B8FBF0F0040120096421F0
:1012A00001FB1089A88900F4004040B1322000EB16
:1012B000C900B0FBF1F000F00700044308E0322061
:1012C00000EB09106421B0FBF1F000F00F000443C3
:1012D0002C8106B0BDE8F0874FF416510160002163
:1012E0008180C18001810C21418100218181704771
:1012F00010B502460020108A4FF2FF0318400B88F9
:101300004C8823438C882343CC8823431843108282
:1013100010BD0021018041808180C180704721B1D2
:10132000828942F40052828104E082894DF6FF7383
:101330001A4082817047F0B503460024002600253C
:10134000002040F66A17B94200D100BF1846C1F329
:10135000421401F01F06012707FA06F5012C01D1FE
:101360000C3004E0022C01D1103000E014301AB12E
:1013700007682F43076002E00768AF430760F0BDCE
:101380001AB1838A0B43838202E0838A8B43838270
:101390007047028A4FF6F0731A400282028A0A43AB
:1013A0000282704782894FF2FF731A4082818289DC
:1013B0000A438281704721B1828942F00202828110
:1013C00004E082894FF6FD731A4082817047028AD9
:1013D0004FF6DF731A400282028A0A430282704784
:1013E00021B1028A42F48042028204E0028A4BF672
:1013F000FF731A4002827047C1F30802828070476F
:1014000001468888C0F308007047818941F00101D6
:1014100081817047028BD2B20283028B42EA0122A1
:1014200002837047028B02F47F420283028B0A43DD
:101430000283704721B1828A42F02002828204E056
:10144000828A4FF6DF731A408282704721B1828A06
:1014500042F01002828204E0828A4FF6EF731A4053
:101460008282704721B1828A42F00802828204E0BF
:10147000828A4FF6F7731A408282704721B18289BF
:1014800042F40042828103E08289C2F30E0282812B
:10149000704721B1828A42F40062828204E0828A2B
:1014A0004FF2FF731A4082827047828A4FF6FB73B5
:1014B0001A408282828A0A438282704721B1828ADC
:1014C00042F00202828204E0828A4FF6FD731A40E3
:1014D0008282704702460020B1F5007F00D100BF34
:1014E00013880B400BB1012000E00020704701F48D
:1014F0000072B2F5007F00D100BFCA43028070477E
:1015000070B50246002400230025002040F66A162C
:10151000B14200D100BFC1F3421501F01F03012603
:1015200006FA03F3012D02D19689334006E0022D1D
:1015300002D1168A334001E0968A33400C1201260C
:1015400006FA04F41688344013B10CB1012000E00F
:10155000002070BD10B50022002340F66A14A1429D
:1015600000D100BF0A1201249440A3B2DC430480DE
:1015700010BD000000380140004400400048004019
:10158000004C00400050004031490143314A116095
:10159000704770B5002100230F22C47804B32D4C8E
:1015A000246804F4E064C4F5E064210AC1F1040392
:1015B000CA40447804FA03F18478144021430901B5
:1015C000254C0678A155047804F01F050124AC4091
:1015D00005786D11AD0005F1E025C5F8004109E081
:1015E000047804F01F050124AC401C4D06787611E8
:1015F00045F8264070BD1A4A0A400243154B1B1F8E
:101600001A60704739B1134A121D12680243114B18
:101610001B1D1A6006E00F4A121D126882430D4B13
:101620001B1D1A607047042808D14FF0E02109699A
:1016300041F004014FF0E022116107E04FF0E0219A
:10164000096921F004014FF0E022116170470000A8
:101650000000FA050CED00E000E400E080E100E0AD
:1016600080FFFF1F10B50446FA48844208D10121CB
:101670004015FFF737FD00216015FFF733FD17E038
:10168000F548844208D101210015FFF72BFD002108
:101690002015FFF727FD0BE0F048844208D1012117
:1016A000C803FFF71FFD00214FF40040FFF71AFDAC
:1016B00010BD30B50246002000235068E84C2040A1
:1016C0000D790C6844EA0524204350609068E54C8D
:1016D0002040D1E902542C434D7944EA450420438B
:1016E0009060D06A20F470000C7C641EE4B2234346
:1016F00040EA0350D06230BD0021016001714171A8
:101700008160C16001210174704721B1826842F09B
:101710000102826003E0826822F001028260704769
:1017200021B1826842F48072826003E0826822F410
:1017300080728260704710B50023CBB21AB1446842
:101740001C43446002E044689C43446010BD8168CF
:1017500041F0080181607047014600208A6802F06C
:1017600008020AB1012000E000207047816841F0C2
:10177000040181607047014600208A6802F004027B
:101780000AB1012000E00020704721B1826842F4D4
:10179000A002826003E0826822F4A00282607047A7
:1017A000014600208A6802F480020AB1012000E0AC
:1017B0000020704710B50A4600210023416821F43B
:1017C0006041531E41EA4331416010BD21B142687E
:1017D00042F40062426003E0426822F40062426028
:1017E0007047F0B504460D4600200021092D11DD9B
:1017F000E068A5F10A0606EB4607072606FA07F198
:101800008843A5F10A0606EB460603FA06F10843EB
:10181000E0600CE0206905EB4507072606FA07F1B2
:10182000884305EB450603FA06F108432061072AC1
:101830000FDA606B561E06EB86071F2606FA07F1C5
:101840008843561E06EB860605FA06F108436063D8
:1018500022E00D2A0FDA206BD61F06EB86071F2623
:1018600006FA07F18843D61F06EB860605FA06F14D
:101870000843206310E0E06AA2F10D0606EB86073C
:101880001F2606FA07F18843A2F10D0606EB86062D
:1018900005FA06F10843E062F0BD21B1826842F426
:1018A0008012826003E0826822F4801282607047B6
:1018B0000146C86C80B2704766484C30006870477B
:1018C00021B1426842F48062426003E0426822F43F
:1018D00080624260704721B1426842F480524260A7
:1018E00003E0426822F48052426070470A460021B9
:1018F000816821F4E04111438160704721B1826821
:1019000042F40042826003E0826822F40042826076
:10191000704721B1826842F40212826003E082685B
:1019200022F4021282607047014600208A6802F4A5
:1019300000120AB1012000E000207047F0B5044613
:101940001546002000220026092911DDE068A1F1DA
:101950000A0707EB470C072707FA0CF29043A1F19F
:101960000A0707EB470703FA07F21043E0600CE0B1
:10197000206901EB410C072707FA0CF2904301EBB9
:10198000410703FA07F210432061A06BC0F3015630
:10199000EF1C06F1010CA7EB0C0707EB870C1F27C8
:1019A00007FA0CF29043EF1C06F1010CA7EB0C07B1
:1019B00007EB870701FA07F21043A063F0BD10B5EB
:1019C0000A4600210023816B21F44011531E41EA95
:1019D0000351816310BD08B5002300930090009B64
:1019E0000B440093009B1A6008BD08B50246002016
:1019F0000090009201F12800009B1844009000988C
:101A0000006880B208BD0A4600214168164B1940A3
:101A10001143416070474162826270470A4600216B
:101A2000416821F01F0111434160704740B10949ED
:101A30000831096841F40001064A0832116007E0E4
:101A400004490831096821F40001024A0832116092
:101A5000704700000024014000280140003C014084
:101A6000FFFEF0FFFDF7F1FFFFFD3FFF0246002004
:101A700013680B400BB1012000E000207047CA43FF
:101A80000260704770B502460020002300240B124C
:101A90005568CEB205EA060415681D4015B10CB1B3
:101AA000012000E0002070BD00220A12D343036031
:101AB0007047000001684FF6FE721140016000217E
:101AC000016041608160C1608D49884208D18C49C4
:101AD0000839496841F00F01894A083A51608AE0A3
:101AE00087491431884208D185490839496841F04D
:101AF000F001834A083A51607DE0814928318842EB
:101B000008D17F490839496841F470617C4A083A34
:101B1000516070E07A493C31884208D178490839EF
:101B2000496841F47041764A083A516063E074496B
:101B30005031884208D172490839496841F470210E
:101B40006F4A083A516056E06D496431884208D1C5
:101B50006B490839496841F47001694A083A516093
:101B600049E067497831884208D1654908394968B0
:101B700041F07061624A083A51603CE06149884234
:101B800006D1011F096841F00F01021F116032E008
:101B90005C491431884208D15A49091F096841F04B
:101BA000F001584A121F116025E056492831884239
:101BB00008D15449091F096841F47061514A121F44
:101BC000116018E04F493C31884208D14D49091F46
:101BD000096841F470414B4A121F11600BE04949FA
:101BE0005031884207D14749091F096841F47021E3
:101BF000444A121F1160704710B50022026847F670
:101C0000F0739A430C6A8B6823430C6923434C6935
:101C100023438C692343CC6923434C6A23438C6A56
:101C200023431A430260CB6843600B6883604B68B0
:101C3000C36010BD0021016041608160C16001612D
:101C400041618161C161016241628162704721B17C
:101C5000026842F00102026004E002684FF6FE737F
:101C60001A40026070471AB103680B43036002E038
:101C700003688B43036070474160704701464868C2
:101C800080B2704701460020002201F080531BB152
:101C90001C4B083B1A6802E0194B083B1A6802EA21
:101CA00001030BB1012000E00020704700F08051DB
:101CB00019B11449091F086002E011490839486048
:101CC000704701460020002201F080531BB10D4BEC
:101CD000083B1A6802E00A4B083B1A6802EA010353
:101CE0000BB1012000E00020704700F0805119B1D5
:101CF0000449091F086002E001490839486070473B
:101D00000800024008040240704700000FB4044974
:101D100010B503AA029800F099FB10BC5DF814FB03
:101D20003C00002070B50C460546012A05D02878F5
:101D3000800600D5EA69002302E0012305E05B1C70
:101D4000934202D2E05C0028F9D1A869E618C01AD3
:101D5000A861286A184428622846AFF3008004E08E
:101D6000D5E9012114F8010B9047B442F8D3284675
:101D7000AFF3008070BD00002DE9F041064600245D
:101D800010687529314616A510D0AFF300800028E1
:101D900002DA404213A507E031688A0701D512A58F
:101DA00002E0490704D511A5012401E0AFF300804A
:101DB00000210A2206F1240709E0B0FBF2FCB0FB87
:101DC000F2F302FB1C00303078541846491C0028FE
:101DD000F3D123462A463046BDE8F04100F0BAB8B8
:101DE000000000002D0000002B000000200000007B
:101DF0002DE9F0474FF0000A89460446C0F820A0BC
:101E00002046E1688847002876D0252806D0D4E906
:101E100001219047206A401C2062F1E7E1682046DA
:101E200000258847C4F81CA006460027C4F818A05F
:101E30002A2E09D0304601F070F838B304EB870839
:101E4000303EC8F8186019E059F8041B204604EB2E
:101E500087029161E1688847012F064618D1E06941
:101E6000002820DA25F020051DE0D8F8180000EB46
:101E7000800006EB40003038C8F818002046E168C2
:101E80008847064601F049F80028EED1012F0AD014
:101E90002E2E08D12046E16888477F1C0646022F77
:101EA00045F02005C4DBA069002803DA404245F074
:101EB0000105A061E80701D025F01005B6B1A6F133
:101EC0004100192802D8203645F400654A463146BB
:101ED000204625604D46FEF765F958B1012806D029
:101EE000ED1D25F0070000F1080989E704E005F180
:101EF000040985E730468AE7206ABDE8F0874FF09D
:101F0000000200B5134694469646203922BFA0E849
:101F10000C50A0E80C50B1F12001BFF4F7AF090755
:101F200028BFA0E80C5048BF0CC05DF804EB890046
:101F300028BF40F8042B08BF704748BF20F8022B89
:101F400011F0804F18BF00F8012B704770477047A1
:101F5000704770472DE9F0470D4699469246044672
:101F600000F124080168880604D5E06921F0100119
:101F7000216000E00120A84201DD471B00E00027AE
:101F8000A1697A1902EB0900081AA0612078C0063D
:101F900002D42046AFF30080002608E0D4E90121F6
:101FA0001AF806009047206A401C761C20624E45B5
:101FB000F4DB2078C0060AD52046AFF3008006E0A7
:101FC000D4E9012130209047206A401C2062381E4D
:101FD000A7F10107F4DC07E0D4E9012118F80500B6
:101FE0009047206A401C2062281EA5F10105F3DC01
:101FF0002046AFF300802078000602D50220BDE81D
:10200000F0870120FBE770472DE9FF4F0C461E4685
:102010004FF0FF378BB0D2E90001DDF860800A9005
:102020008A46C1F30A5505B93D46002108464FF0DE
:102030000000BAF1000F00F4400005DA00EB800068
:102040004FF4400101EA50004FEA9059B9F1010FF5
:1020500000DDB9460A9850EA4A000ED044F6105006
:10206000A5F2FF3545432F14B8F1000F1ED075427D
:10207000291E1EDDC9F100021CE0B8F1010F4FF06E
:10208000000001D0302103E0F24305E02154401C60
:10209000B042FBDB30460022002121540B99C1F8ED
:1020A0000880C1E900200FB0BDE8F08FBD1B6D1C9A
:1020B000DEE74A4600DA694206A800F07BFA06AB82
:1020C00093E8070003AB83E8070050460A9900F045
:1020D00055FB8DE80700A0F500501F3800900398CD
:1020E000002D09DD42F21F014A46084403A903906E
:1020F000684600F0B4FD08E0A0F500504A461F38DD
:1021000003A90390684600F0BEFD8DE807000004B7
:10211000000C03D04FF0FF30410800E01046B8F14A
:10212000000F03D00022009215461EE0751E05D454
:1021300000F0A2F9303262556D1EF9D5B346012286
:10214000084302D000227F1C04E02078302801D10F
:1021500000227F1E002A099786D01DE0112D07DA84
:1021600000F08AF9303262556D1C50EA0102F5D157
:10217000084302D00098C8B10EE00021681E05E0B7
:10218000235C625C63542254401E491C8142F7DB8D
:10219000AB46A81B401E0990002004F80B000B98CA
:1021A000099AC0F80880C0E9002B7CE711264FF09F
:1021B000000859E72DE9F04F88460446D21D22F069
:1021C000070191B0D1E90001CDE90A0100F091FECB
:1021D00002460B98C00F01D02D2007E02068810730
:1021E00001D52B2002E0202101EAC000032A09903A
:1021F00001D0072A05DB03464146204600F09AF944
:102200000BE12078800601D5E06900E00620B8F1F6
:10221000650F814606D0B8F1660F18D0B8F1670F88
:1022200070D131E00020B9F1110F009001DB1123D2
:1022300001E009F101030AAA01A90CA8FFF7E4FED5
:10224000DDE90C70002609F10105834647E0012015
:102250004B4600904FF000470AAA01A90CA8FFF7CF
:10226000D3FEDDE90DB00C995D46002610B909F1E9
:1022700001000D18B9EB050003D4C0F1FF3609F1D8
:102280000105A5EB09002BE0B9F1010F01DA4FF0D0
:1022900001090020B9F1110F0090484601DD11231A
:1022A00000E003460AAA01A90CA8FFF7ADFEDDE98C
:1022B0000C704D4600268346207800070AD4AB45B3
:1022C00000DA5D4601A8012D04DD411911F8011C59
:1022D000302907D04F4502DA17F1040F04DA012044
:1022E00082460FE06D1EEEE7002F02DCED1B3E4440
:1022F00003E0781CA84200DD7D1CB81B00F1010A38
:102300004FF000472078000703D4AA4501DB4FF0C7
:10231000FF3A0021B7F1004F0DF143088DF843104B
:1023200024D002202B23002F01DA7F422D230A2103
:10233000021EA0F1010000DC5FB197FBF1FC97FBEE
:10234000F1F201FB1C7C17460CF1300C08F801CDB2
:10235000EEE7A8F1010003702188090501D54521A8
:1023600000E06521A0F1010800F8011C09980FA9FF
:10237000A1EB0807FF1D00B10120411901EBEA7034
:10238000A1693844081A401EA0612078C00602D412
:102390002046AFF30080099828B1D4E90121904785
:1023A000206A401C20622078C00622D52046AFF368
:1023B00000801EE0002E04DBB34502DD01A8805D35
:1023C00000E03020D4E901219047206A401C2062BF
:1023D000761CAAF101005FEA000A0AD100F048F871
:1023E000C0680168405CD4E901219047206A401C24
:1023F0002062281EA5F10105DCDC07E0D4E90121FB
:1024000018F8010B9047206A401C2062381EA7F183
:102410000107F3DC2046AFF30080032011B043E650
:1024200010B5436913B1AFF3008001E0FFF77AFC08
:10243000012010BD127800F124010A7000224A70B8
:102440000122EDE711684FF0FF32E9E7074B70B565
:102450000D467B4400F05BF80446284600F018F96E
:1024600010B14FF0FF3070BD204670BD29E5FFFF71
:1024700000487047D800002030B5B0F10A024FEA9A
:10248000900E71F100034EEA817EB0EB0E0061EB1D
:1024900091014FEA101E4EEA017E10EB0E0041EB57
:1024A00011114FEA102E4EEA016E10EB0E0041EBB7
:1024B00011214FEA104E4EEA014E10EB0E0041EB97
:1024C0001141401841F100014FEAD00040EA41704B
:1024D0004FEAD10110EB80054FEA810444EA907481
:1024E00044EB01046D1944EB0404521BA3414FF06B
:1024F000000348BF0A3200D530BD401C41F1000145
:1025000030BD000001694A1C02610878704700B5BF
:102510008FB0CDE901310021059105497944CDE91C
:10252000031011466846FFF763FC0FB000BD0000C2
:10253000E5FFFFFF2DE9F0411F4604460326016831
:10254000072A01F4006004DB08B116A505E016A512
:1025500003E008B115A500E015A521F010002060EA
:10256000A069C01EA0610FB1401EA0612046AFF35C
:1025700000804FB1D4E9012138469047206A401CC1
:102580002062C01C206206E0206AFAE7D4E901213B
:1025900015F8010B9047761EF8D22046AFF3008065
:1025A000BDE8F0814E414E006E616E00494E46001E
:1025B000696E66002DE9F047814616468AB03348B9
:1025C00078440DC88DE80D0030487844801C03AC79
:1025D0000DC884E80D0041F69B300844372190FB7C
:1025E000F1F290FBF1F5A5F1800501FB12041B3C13
:1025F00002D56442012000E00020DFF890A0804670
:102600000027FA44AAF1BE0A0DE0E00709D03246DD
:10261000684607EB47010AEB810100F034FB8DE8C7
:10262000070064107F1C002CEFD1184F7F44AC3F93
:1026300018E0E80714D007EB04100DF1180A90E831
:102640000E008AE80E00C068F04201D19819089087
:10265000324606A903A800F016FB03AB83E8070087
:102660006D10641C002DE4D132466946B8F1000FAC
:1026700003A802D000F0F3FA01E000F004FBC9E97E
:102680000001C9F808200AB0BDE8F087000B00007F
:10269000007B00F08000704700487047B8000020C1
:1026A0007546FFF7F9FFAE4605006946534620F030
:1026B0000700854618B020B5FEF7CCF9BDE82040EC
:1026C0004FF000064FF000074FF000084FF0000BEE
:1026D00021F00701AC46ACE8C009ACE8C009ACE8A1
:1026E000C009ACE8C0098D46704710B50446AFF389
:1026F00000802046BDE81040FDF774BD4FF0013C5E
:1027000050F8042B51F8043B9A4221D1A2EB0C0360
:10271000934313EACC1317D150F8042B51F8043B20
:102720009A4215D1A2EB0C03934313EACC130BD1BD
:1027300050F8042B51F8043B9A4209D1A2EB0C0348
:10274000934313EACC13DBD04FF00000704700BF77
:10275000D01A01BAB1FA81F101F0180122FA01F0A0
:10276000CB40C1F12001DBB2C0B2C01A2CFA01F398
:10277000D11A914311EAC311E6D170475FEA400CC8
:1027800008BF91F0000F4FEA8C234FEAC12243EAC1
:1027900051514FEA1C5018BF00F5F0404FEA30008D
:1027A00018BF41F000415FEA6C5C00F02980BCF189
:1027B000FF3F08BF40F080407047130C06BF120473
:1027C0004FF0100C4FF0000C130E04BF12020CF16E
:1027D000080C130F04BF12010CF1040C930F04BF7B
:1027E00092000CF1020CD30F04BF52000CF1010C4B
:1027F00011464FF00002A0F11F00A0EB0C00704743
:1028000011F0004F08BF704731F000413FF4D5AFE1
:102810000B0C06BF09044FF0100C4FF0000C0B0E10
:1028200004BF09020CF1080C0B0F04BF09010CF1E5
:10283000040C8B0F04BF89000CF1020CCB0F04BFFA
:1028400049000CF1010CCCF12003A0EB0C0022FAA2
:1028500003F302FA0CF241EA030100F101007047B0
:1028600020F07F4C80EA030023F07F47ACEB0703A6
:1028700003F57C5300F0004003F1FF032DE980498C
:102880004FEA154B09B44FEA144325EA0B4E24EAEC
:1028900003480FF2042606EB132749083E785FEA47
:1028A000320203FB0667C7F5000707FB06F64FEA8F
:1028B00054374FEAD64606F1020607FB066CCCF108
:1028C000005C4FEA1C472CEA074C07FB06F40CFBA4
:1028D00006F504EB15464FEA961634BF00204FF07C
:1028E00000404FEAD13706FB07FC4FEA1C4C0CFBBB
:1028F0000BF7D21B03FB0CF761EB07010CFB0EF788
:10290000B0EB074072EB17420CFB08F734BFA2EBA9
:102910000742B2EB074261EB17414FEA0C444FEA22
:10292000910706FB07FC4FEA1C4C0CFB0BF7B0EBC6
:10293000C74072EB573203FB0CF734BFA2EBC74220
:10294000B2EBC74261EB57310CFB0EF7B0EBC7009F
:1029500072EB57720CFB08F734BFA2EBC702B2EB65
:10296000C70261EB5771039F4FEA816141EA9211FF
:1029700004EBCC044FEAD1374FEA826206FB07FC36
:1029800042EA90124FEA80604FEA1C4C0CFB0BF7B6
:10299000D21B03FB0CF761EB07010CFB0EF7B0EB4E
:1029A000074072EB17420CFB08F734BFA2EB07425B
:1029B000B2EB074261EB17414FEA8C554FEA9107A2
:1029C00004EB9C2406FB07FC4FEA1C4C0CFB0BF7AA
:1029D000B0EBC74072EB573203FB0CF734BFA2EBEE
:1029E000C742B2EBC74261EB57310CFB0EF7B0EBBD
:1029F000C70072EB57720CFB08F734BFA2EBC7029B
:102A0000B2EBC70261EB577115EB4C254FEA8161C0
:102A100041EA92114FEA82624FEAD13742EA9012BC
:102A200006FB07FC44F100044FEA80604FEA1C4CAF
:102A30000CFB0BF7D21B03FB0CF761EB07010CFB44
:102A40000EF7B0EB074072EB17420CFB08F734BFF0
:102A5000A2EB0742B2EB074261EB174115EB1C15E5
:102A60004FEA813141EA92414FEA823242EA904292
:102A70004FEA80304FEA0C7644F1000448EA034301
:102A80004EEA0B484FF0000EB2EB080C71EB030757
:102A900024BF624639464EEB0E0E4FF0000B001875
:102AA000524149414BEB0B0BB2EB080C71EB0307A6
:102AB0007BF1000B24BF624639464EEB0E0E4FF001
:102AC000000B0018524149414BEB0B0BB2EB080CC9
:102AD00071EB03077BF1000B24BF624639464EEBD6
:102AE0000E0E51EA020718BF46F0010616EB0E76ED
:102AF00055F1000254F1000103D5BDE88901BDE89C
:102B00000088BDE88901BDE80048B619524141EB93
:102B10000101A3F10103704780807F7E7D7C7B7A79
:102B20007978777676757473727171706F6E6E6D79
:102B30006C6C6B6A6A69686867666665646463631F
:102B400062616160605F5F5E5E5D5D5C5C5B5B5AA5
:102B50005A59595858575756565555555454535312
:102B600052525251515050504F4F4F4E4E4D4D4D6D
:102B70004C4C4C4B4B4B4A4A4A49494948484847B8
:102B800047474746464645454544444444434343F6
:102B90004342424242414141002B26D4770021D09A
:102BA0001CB54FEA370703B44FF010004FF0100187
:102BB0004FF000000FBCBDE810400BF1010BBBF162
:102BC000010F08BF5FEA170722BF12F1010211F1DE
:102BD00001014FF0004143F1000300F0004043EADF
:102BE00000007047F9D35708DAE746EA064613F1C2
:102BF000400F4FEA16461FDD13F1200FDFBF1643CB
:102C00000A46002120335B42C8D0C3F1200746EAC0
:102C1000064602FA07F74FEA164646EA0706C3F1E8
:102C2000200722FA03F201FA07F721FA03F14FF025
:102C3000000342EA0702B1E746EA020646EA064610
:102C40004FEA164646EA0106BCBF46EA0646360C7F
:102C50004FF000034FF000024FF000019EE72DE916
:102C6000C048934630B491E8380007C831EA400CB8
:102C700048BF34EA430C03D5FFF7F2FDFFF78CFFA2
:102C8000F0BCBDE800882DE9C048934630B491E817
:102C9000380007C810F0804F08BF13F0804F03D1F1
:102CA00000F005F8FFF778FFF0BCBDE8008820F0E1
:102CB0007F4780EA030023F07F4C07EB0C03A3F56A
:102CC0007C5300F00040A3F1FE0392F0000F00F0EF
:102CD000B38095F0000F00F077802DE901494FEAAD
:102CE00011404FEA144621EA004800FB06FC24EAA2
:102CF000064708FB06F607FB08F800FB07F718EB8A
:102D000006484CEB164C4FEA124B18EB07484FEABB
:102D100015464CEB174022EA0B4E0BFB06FC25EA4E
:102D200006470EFB06F607FB0EFE0BFB07F71EEB36
:102D3000064E4CEB164C4FF000061EEB074E4CEBCC
:102D4000174B18EB0B0840F1000018EB0E0B58EB7B
:102D5000000840F100008F1A4FF000013CBFC9434A
:102D6000661B14BFB5EB040C00213CBFC943F61B26
:102D70004FEA17444EEA8E0E27EA04454FEA1C47F5
:102D800004FB07622CEA074C05FB07F70CFB05F672
:102D900004FB0CFC16EB074642EB174216EB0C4605
:102DA00042EB1C421BEB060658EB0202414146EA8D
:102DB0009E0601D5BDE80189B619524141EB0101DA
:102DC000A3F10103BDE801894FEA14454FEA114719
:102DD00024EA054621EA074C05FB07F406FB07F742
:102DE0000CFB06F105FB0CFC11EB074144EB17440F
:102DF0004FEA124711EB0C4144EB1C4422EA074C0A
:102E000005FB07F206FB07F70CFB06F605FB0CFCBF
:102E100016EB074642EB174216EB0C4642EB1C45FD
:102E20006A1854F1000148BF7047B619524141EB8E
:102E30000101A3F10103704795F0000F37D04FEA6D
:102E400011424FEA144721EA024624EA074C02FBEA
:102E500007F106FB07F70CFB06F402FB0CFC14EB76
:102E6000074441EB17414FEA154714EB0C4441EB83
:102E70001C4125EA074C02FB07F506FB07F70CFB94
:102E800006F602FB0CFC16EB074645EB174516EB66
:102E90000C4645EB1C42121951F1000148BF704726
:102EA000B619524141EB0101A3F1010370474FEA0A
:102EB00014454FEA114724EA054621EA074C05FB71
:102EC00007F106FB07F70CFB06F24FF0000605FBC7
:102ED0000CFC12EB074241EB174112EB0C4251EB99
:102EE0001C4148BF7047921841EB0101A3F1010357
:102EF0007047490050EAC12018BF04204A0D18BF8E
:102F000040F0010040F2FF72B2EB515F08BF40F0A9
:102F10000200012808BF0520704730380A2801D276
:102F2000012070470020704710B500290AD00878AA
:102F3000002807D005487844FFF7E0FB002801D0BF
:102F4000002010BD0248784410BD0000C6010000FA
:102F5000BE0100000808A0F500114FEA31017047DA
:102F600043004FEAD30C4FEA3C0C43401FBF4007DD
:102F70000CF1605113F0FE4F70471CF0006F03D14D
:102F800000200CF0004170470CF0004343EA507001
:102F900010B540EACC0000F00EF800BF000000922F
:102FA0004FEA0001FFF7D6BF4FF000414FF000009D
:102FB000A1F5002170470EF1020E2EF0030E5EF80F
:102FC000044B244204D44FEA4102B2F17F4F11D89E
:102FD0004FEA4003B3F17F4F0CD80ED14FEAD07CBB
:102FE000B2F17F4F0CEB4C0C0CF1020C08BF4CEB18
:102FF000D17C04E04FF0080C01E04FEAD17C0CEBEF
:103000004C0324FA03F404F00704B4F1040C06D2D0
:103010000EEB840CBDE810404CF0010C6047DFE87B
:103020000CF0070802024FF00040A0F5800010BD30
:103030000846420018BFD2F1807288BF00F00040FD
:1030400010BDFFF7B7B8000002400000000000A06C
:103050000000000005400000000000C80000000063
:103060000C4000000000409C0000000019400000DF
:103070000020BCBE0000000034400000BFC91B8E11
:1030800000000004B5400000504BCFD06607E2CFEF
:10309000010000006C4100003E8251AADFEEA7341F
:1030A00001000000D9420000DCB5A0E23A301F97D1
:1030B000FFFFFFFFB4450000FD25A0C8E9A3C14FF5
:1030C000FFFFFFFFFF3F0000000000800000000046
:1030D000FF3F0000000000800000000018310008E1
:1030E00000000020540000006C0100086C31000852
:1030F00054000020C4060000880100081C000000E5
:1031000043000000F8FFFFFF0C0000000E0000006D
:103110000F0000002E000000000000000000000072
:10312000000000000000000000000000000000009F
:10313000000000000000000000A24A04000000009F
:103140000000000001020304060708090000000057
:103150000000000000000000000000000102030465
:0C31600001020304060708090204060827
:0400000508000131BD
:00000001FF
